:020000040800F2
:10000000580F0020E502000835270008D91F000816
:100010003127000885110008612A0008000000004F
:10002000000000000000000000000000A9290008F6
:10003000891100080000000065270008DD2900087C
:10004000FF020008FF020008FF020008FF0200088C
:10005000FF020008FF020008FF020008FF0200087C
:10006000FF020008FF020008FF020008FF0200086C
:10007000FF020008FF020008FF020008FF0200085C
:10008000FF020008FF020008FF020008FF0200084C
:10009000FF020008FF020008FF020008FF0200083C
:1000A000FF020008FF020008FF020008FF0200082C
:1000B000FF020008FF020008FF020008FF0200081C
:1000C000FF020008FF020008FF020008FF0200080C
:1000D000FF020008FF020008FF020008FF020008FC
:1000E000FF020008FF020008FF020008FF020008EC
:1000F000FF020008FF020008FF020008FF020008DC
:10010000FF020008FF020008FF020008FF020008CB
:10011000FF020008FF020008FF020008FF020008BB
:10012000FF020008FF020008FF020008FF020008AB
:10013000FF020008FF020008FF020008FF0200089B
:10014000FF020008FF020008FF020008FF0200088B
:10015000FF020008FF020008FF020008FF0200087B
:10016000FF020008FF020008FF020008FF0200086B
:10017000FF020008FF020008FF020008FF0200085B
:10018000FF020008FF020008FF020008FF0200084B
:10019000FF02000800000000FF020008FF02000844
:1001A000FF020008FF020008FF020008FF0200082B
:1001B000FF020008FF020008FF020008FF0200081B
:1001C000FF020008FF020008FF020008FF0200080B
:1001D000FF020008FF02000800F002F800F072F8C9
:1001E0000AA090E8000C82448344AAF10107DA4592
:1001F00001D100F067F8AFF2090EBAE80F0013F072
:10020000010F18BFFB1A43F001031847EC4300002D
:100210000C440000103A24BF78C878C1FAD85207BD
:1002200024BF30C830C144BF04680C607047000070
:100230000023002400250026103A28BF78C1FBD8EF
:10024000520728BF30C148BF0B607047662903F0D2
:100250006880652903F06580672903F06280612961
:1002600003F06180692900F0BF80642900F0BC8040
:10027000752900F0B9806F2900F05081782900F0CD
:1002800077810368DB0928BF41F08001632900F012
:10029000B585E32900F0C885002070471FB503F03D
:1002A00033F800F0F9FD04000020002103F016F8F7
:1002B000401C60600020002102F0FAFFE0601FBDDA
:1002C00010B510BD00F0E8FE1146FFF7E7FF02F0A1
:1002D000F3FB00F006FF03B4FFF7F2FF03BC00F0EE
:1002E0004BFF00000948804709480047FEE7FEE74A
:1002F000FEE7FEE7FEE7FEE7FEE7FEE7FEE7FEE7D6
:1003000004480549054A064B704700004D2A00087D
:10031000D901000858090020580F0020580B002070
:10032000580B002070B5044685690068C10601D5E8
:10033000302600E02026C00707D070BDD4E9012197
:1003400030469047206A401C20626D1EF6D570BD75
:1003500070B5044685690078C00707D170BDD4E93F
:10036000012120209047206A401C20626D1EF6D596
:1003700070BD09684A0501D540B27047C905FCD572
:1003800000B2704709684A0501D5C0B27047C90577
:10039000FCD580B2704770B50C460546012A05D0E1
:1003A0002878800600D5EA69002302E0012305E0F1
:1003B0005B1C934202D2E05C0028F9D1A869E618E0
:1003C000C01AA861286A184428622846FFF7AAFFC5
:1003D00004E0D5E9012114F8010B9047B442F8D3A9
:1003E0002846FFF7B5FF70BD2DE9F0410646002411
:1003F00010687529314616A510D0FFF7BAFF0028FE
:1004000002DA404213A507E031688A0701D512A538
:1004100002E0490704D511A5012401E0FFF7B2FF6E
:1004200000210A2206F1240709E0B0FBF2FCB0FB30
:10043000F2F302FB1C00303078541846491C0028A7
:10044000F3D123462A463046BDE8F04100F0E6B835
:10045000000000002D0000002B0000002000000024
:100460002DE9FF5F15468A460446DFF8AC80F84464
:100470000027D8E900103E46CDE9001010E03AF818
:1004800016106A4602A800F0DBFC411C07D0217858
:10049000890603D5E269391891420DD80744761CC4
:1004A0002078800602D5E069B84205DDAE42E6DB81
:1004B0003AF816000028E2D1A069C01BA0612046CE
:1004C000FFF730FFD8E90010CDE90010002017E059
:1004D0003AF818106A4602A800F0B2FCB0F1FF3FEB
:1004E00081460BD000250DF1080B05E0D4E9012170
:1004F0001BF8050090476D1C4D45F7D308F101002E
:10050000B0428046E4DB206A384420622046FFF790
:100510001FFFBDE8FF9F0000BA2E000070B5044623
:1005200021461068FFF72EFF002104F1240505E0A5
:1005300000F007023032C0086A54491C0028F7D185
:100540002068002308A2050708D500F02000084312
:1005500004D0E069012305A2401EE0612046BDE809
:10056000704000F05BB800000000000030000000A8
:1005700070B504460D4621461068FFF703FF218839
:10058000090502D50F4A7A4402E00E4A7A440E3237
:10059000002104F1240305E000F00F060009965D38
:1005A0005E54491C0028F7D120780023000704D5A9
:1005B000702D02D009B1022311322046BDE87040EF
:1005C00000F02CB8AA2D00004FF0000200B5134631
:1005D00094469646203922BFA0E80C50A0E80C5063
:1005E000B1F12001BFF4F7AF090728BFA0E80C5014
:1005F00048BF0CC05DF804EB890028BF40F8042B0D
:1006000008BF704748BF20F8022B11F0804F18BF79
:1006100000F8012B70477047704770472DE9F0478D
:100620000D4699469246044600F124080168880662
:1006300004D5E06921F01001216000E00120A8420A
:1006400001DD471B00E00027A1697A1902EB0900D0
:10065000081AA0612078C00602D42046FFF762FE87
:10066000002608E0D4E901211AF806009047206A24
:10067000401C761C20624E45F4DB2078C0060AD56B
:100680002046FFF74FFE06E0D4E9012130209047D5
:10069000206A401C2062381EA7F10107F4DC07E045
:1006A000D4E9012118F805009047206A401C206217
:1006B000281EA5F10105F3DC2046FFF749FE20784E
:1006C000000602D50220BDE8F0870120FBE72DE9F6
:1006D000FF4F0C461E464FF0FF378BB0D2E90001AA
:1006E000DDF860800A908A46C1F30A5505B93D4697
:1006F000002108464FF00000BAF1000F00F440005E
:1007000005DA00EB80004FF4400101EA50004FEAA7
:100710009059B9F1010F00DDB9460A9850EA4A0034
:100720000ED044F61050A5F2FF3545432F14B8F112
:10073000000F1ED07542291E1EDDC9F100021CE00B
:10074000B8F1010F4FF0000001D0302103E0F24377
:1007500005E02154401CB042FBDB30460022002162
:1007600021540B99C1F80880C1E900200FB0BDE801
:10077000F08FBD1B6D1CDEE74A4600DA694206A811
:1007800000F014FC06AB93E8070003AB83E8070016
:1007900050460A9902F0ACF98DE80700A0F5005028
:1007A0001F3800900398002D0ADD42F21F014A46CF
:1007B0000844002303A90390684602F015FC09E0F1
:1007C000A0F500504A461F38002303A9039068464D
:1007D00002F01FFC8DE807000004000C03D04FF06E
:1007E000FF30410800E01046B8F1000F03D00022AE
:1007F000009215461EE0751E05D400F051FB303204
:1008000062556D1EF9D5B3460122084302D000227D
:100810007F1C04E02078302801D100227F1E002AAE
:10082000099784D01DE0112D07DA00F039FB303232
:1008300062556D1C50EA0102F5D1084302D00098C0
:10084000C8B10EE00021681E05E0235C625C6354C1
:100850002254401E491C8142F7DBAB46A81B401EB8
:100860000990002004F80B000B98099AC0F8088042
:10087000C0E9002B7AE711264FF0000857E72DE971
:10088000F04F88460446D21D22F0070191B0D1E90D
:100890000001CDE90A0102F0F3FC02460B98C00FFB
:1008A00001D02D2007E02068810701D52B2002E030
:1008B000202101EAC000032A099001D0072A05DBA4
:1008C00003464146204600F031FB0BE120788006CC
:1008D00001D5E06900E00620B8F1650F814606D039
:1008E000B8F1660F18D0B8F1670F70D131E0002071
:1008F000B9F1110F009001DB112301E009F10103AF
:100900000AAA01A90CA8FFF7E2FEDDE90C70002697
:1009100009F10105834647E001204B4600904FF066
:1009200000470AAA01A90CA8FFF7D1FEDDE90DB026
:100930000C995D46002610B909F101000D18B9EBBC
:10094000050003D4C0F1FF3609F10105A5EB09004C
:100950002BE0B9F1010F01DA4FF001090020B9F1E4
:10096000110F0090484601DD112300E003460AAA5A
:1009700001A90CA8FFF7ABFEDDE90C704D4600267F
:100980008346207800070AD4AB4500DA5D4601A80B
:10099000012D04DD411911F8011C302907D04F4504
:1009A00002DA17F1040F04DA012082460FE06D1E0F
:1009B000EEE7002F02DCED1B3E4403E0781CA8426A
:1009C00000DD7D1CB81B00F1010A4FF000472078C4
:1009D000000703D4AA4501DB4FF0FF3A0021B7F12D
:1009E000004F0DF143088DF8431024D002202B2333
:1009F000002F01DA7F422D230A21021EA0F10100FF
:100A000000DC5FB197FBF1FC97FBF1F201FB1C7C72
:100A100017460CF1300C08F801CDEEE7A8F1010003
:100A200003702188090501D5452100E06521A0F169
:100A3000010800F8011C09980FA9A1EB0807FF1D88
:100A400000B10120411901EBEA70A1693844081A8C
:100A5000401EA0612078C00602D42046FFF762FC49
:100A6000099828B1D4E901219047206A401C2062EE
:100A70002078C00622D52046FFF754FC1EE0002E49
:100A800004DBB34502DD01A8805D00E03020D4E93D
:100A900001219047206A401C2062761CAAF10100C7
:100AA0005FEA000A0AD100F0F7F9C0680168405C0B
:100AB000D4E901219047206A401C2062281EA5F13C
:100AC0000105DCDC07E0D4E9012118F8010B9047AF
:100AD000206A401C2062381EA7F10107F3DC204683
:100AE000FFF736FC032011B041E600002DE9F04F7E
:100AF00004460D46D21D22F0070089B0D0E90097C8
:100B00004846394602F0BCFB0246F80F01D02D23BF
:100B100007E02068810701D52B2302E0202101EAAC
:100B2000C0038DF820300BB1012000E00020032A23
:100B3000824601D0072A04DB2946204600F0F6F958
:100B40003FE12078800601D40D2500E0E569C7F378
:100B50000A560D2D49DA00214FEA175B08464FF07F
:100B60000000002F00F4400007DA00EB80004FF493
:100B7000400100EBD07001EA60008115012901DD20
:100B80004FF0FF3100224FEA850CBCF1180F06D35D
:100B90001346ACF118004FF08052C24003E04FF40E
:100BA000801323FA0CF30CF10C0CBCF1200F04D3CE
:100BB000ACF1200C09FA0CF001E007FA0CF0002966
:100BC0004FF0004801DD18B90FE00ED140450CD3BD
:100BD00019EB02095F4121B9404502D19F4329EA3F
:100BE0000209BBEB175F00D0761C2088000502D5F8
:100BF0007B48784402E07A487844193808AA3023C0
:100C000002F80A30037C0AF10101002E0AF1020AFF
:100C100053546A4602DC4FF0300101E04FF03101DD
:100C20004FF001088DF8001002D0A6F2FF3603E065
:100C300059EA470100D06B4E002D02DC21780907EC
:100C400004D54FF002082E218DF80110C446002172
:100C50000BE0C7F303433F01C35C491C6D1E02F860
:100C60000830052908F1010801DA002DF1DC002126
:100C70000CE000EB1973491C1B786D1E082902F863
:100C800008304FEA091908F1010801DA002DF0DCFB
:100C900021688B0602D516E0A8F10108E04505DDC4
:100CA00002EB080313F8013C302BF5D0B8F1000F2C
:100CB00009DD02EB080313F8013C2E2B03D10907D1
:100CC00001D4A8F10108002D05DD3E2102F808102D
:100CD0006D1E08F10108407C002E02F8080008F1A2
:100CE000010804DA2D20764202F8080002E02B20E9
:100CF00002F808000A214FF47A70864208F10108D0
:100D00000BDB96FBF0F3303302F8083096FBF0F380
:100D100008F1010800FB136601E0642E0CDB64207F
:100D200096FBF0F3303302F8083096FBF0F308F14D
:100D3000010800FB136601E00A2E06DB96FBF1F0CA
:100D4000303002F8080008F1010896FBF1F001FBD1
:100D50001060303002F80800A16908F1010808EBC2
:100D6000050202EB0A00081AA0612078C00602D42E
:100D70002046FFF7D7FA216A08AE01EB0A0020628D
:100D800004E0D4E9012116F8010B9047BAF1010AF9
:100D9000F7D22078C00602D52046FFF7C3FA6E4688
:100DA00009E016F8010B3E280FD0D4E90121904745
:100DB000206A401C2062B8F10108F2D22046FFF7F9
:100DC000C7FA09B00320BDE8F08F206A28442062EA
:100DD00003E0D4E90121302090476D1EEBD3F8E702
:100DE0007927000002FCFFFF10B5436913B1AFF390
:100DF000008001E0FFF7CFFA012010BD127800F16A
:100E000024010A7000224A700122EDE711684FF0B8
:100E1000FF32E9E710B5436913B1AFF3008001E099
:100E2000FFF71EFB012010BD128800F1240182840F
:100E30000022C2840122EDE711684FF0FF32E9E79A
:100E40002DE9F04116460C46054600F01DF80368F2
:100E500093F80101012807D0FF2C12D8185D80B14A
:100E600001202C70BDE8F081D3F8070132462146FD
:100E700003F20713C7182846BC46BDE8F04100231B
:100E800060474FF0FF30EDE710B500F005F8001DAA
:100E900010BD00BF49240000004870473800002002
:100EA00030B5B0F10A0271F100034FEA900E4EEA3C
:100EB000817EB0EB0E0061EB91014FEA101E4EEA0D
:100EC000017E10EB0E0041EB11114FEA102E4EEA9D
:100ED000016E10EB0E0041EB11214FEA104E4EEA6D
:100EE000014E10EB0E0041EB1141401841F10001A1
:100EF0004FEAD00040EA41704FEAD1014FEA810445
:100F000044EA907410EB800544EB01046D1944EB46
:100F10000404521BA3414FF0000348BF0A3200D51E
:100F200030BD401C41F1000130BD00002DE9F04111
:100F30001F46044603260168072A01F4006004DB0B
:100F400008B116A505E016A503E008B115A500E057
:100F500015A521F010002060A069C01EA0610FB18E
:100F6000401EA0612046FFF7DDF94FB1D4E9012111
:100F700038469047206A401C2062C01C206206E070
:100F8000206AFAE7D4E9012115F8010B9047761E93
:100F9000F8D22046FFF7DCF9BDE8F0814E414E0063
:100FA0006E616E00494E4600696E66002DE9F0479D
:100FB000814616468AB0354878440DC88DE80D0044
:100FC00032487844801C03AC0DC884E80D0041F61B
:100FD0009B300844372190FBF1F290FBF1F5A5F12D
:100FE000800501FB12041B3C02D56442012000E095
:100FF0000020DFF898A080460027FA44AAF1BE0A34
:101000000EE0E0070AD03246684607EB47010123AD
:101010000AEB810101F0FDFF8DE8070064107F1CE1
:10102000002CEED1194F7F44AE3F19E0E80715D0F0
:1010300007EB04100DF1180A90E80E008AE80E0084
:10104000C068F04201D1981908903246012306A9E0
:1010500003A801F0DEFF03AB83E807006D10641CFA
:10106000002DE3D14FF0010332466946B8F1000F7D
:1010700003A802D001F0B8FF01E001F0CAFFC9E9FE
:101080000001C9F808200AB0BDE8F0874424000038
:1010900000487047180000207546FFF7F9FFAE467C
:1010A00005006946534620F00700854618B020B574
:1010B000FFF726F9BDE820404FF000064FF000078B
:1010C0004FF000084FF0000BAC46ACE8C009ACE8AC
:1010D000C009ACE8C009ACE8C00921F007018D46A1
:1010E000704710B50446AFF300802046BDE81040BD
:1010F000FFF7F1B80000000030B44FF0013C50F8A9
:10110000042B51F8043BCCFA52F4D51A20D1FCB987
:1011100050F8042B51F8043BCCFA52F4D51A17D1ED
:10112000B4B950F8042B51F8043BCCFA52F4D51A58
:101130000ED16CB950F8042B51F8043BCCFA52F4A0
:10114000D51A05D1002CDAD030BC4FF00000704722
:1011500029BAB1FA81F111F01801D1F120008440CF
:10116000F2D1CA40CB4012F0FF0213F0FF0330BCB3
:10117000D01A70477047000001491820ABBEFEE747
:1011800026000200FEE7000070470000EFF3108029
:1011900072B600BFFEE70000B0B5044600F0E8F804
:1011A000054640F21000C2F200000068611C18BF42
:1011B000044400BF00F0DCF8401BA042FAD3B0BDED
:1011C0002DE9F04F83B00D68002D00F0C88000F1CC
:1011D00038424FEAB22241F200470192C4F60007BA
:1011E0000622002600244FF00108B84208BF05225D
:1011F000009209E00D68043435FA08F208F101089C
:1012000006F1020600F0AB80A8F1010C012202FAFF
:101210000CFB15EA0B09EDD0D1F804A00AF0030588
:10122000A5F1010EBEF1010F11D887680322CB682A
:10123000B24027EA0202B3401A4382604268CAF30E
:10124000001322EA0B0203FA0CF31A434260032D47
:1012500002D18A68012A08D0C26803238F68B3408C
:101260009A4307FA06F31A43C260022D11D16FF0B8
:10127000030202EA5C02024404F01C070F23D2F8C6
:1012800020E003FA07F50B692EEA0505BB402B4366
:101290001362026803234F68B3409A4307F00303C5
:1012A000B3401A4317F4403F0260A3D041F26003F9
:1012B000C4F202031A6840F2004E42F001021A60C2
:1012C0001A68C4F2010E02F001020292029A2CF096
:1012D00003024FF6084A7244CFF6FF7A52F80A30FA
:1012E00004F00C070F25BD4023EA050C019B009D6F
:1012F000052B38BF1D4605FA07F747EA0C0342F8ED
:101300000A30DEF808204B6842EA090740F20C4C2C
:10131000DD0258BF22EA0907CEF80870C4F2010CBA
:10132000DCF800209D0242EA090758BF22EA0907BB
:10133000CCF80070DEF804209D0342EA090758BF8C
:1013400022EA0907CEF80470DEF80020DB0342EA47
:10135000090758BF22EA0907CEF800704AE703B030
:10136000BDE8F08F1823002A08BF2823C15070471A
:1013700040F65410C2F200000068704740F21000BE
:1013800040F65411C2F20000C2F2000100680A687F
:10139000104408607047000080B5032000F064F836
:1013A0000F2000F009F800281CBF012080BD00F0CC
:1013B0002FF8002080BD0000B0B540F21001C2F24D
:1013C0000001096801B3044640F20C00C2F20000BB
:1013D0004FF47A720068B2FBF1F1B0FBF1F000F06B
:1013E000F7FD0F2C4FF001050CD858B94FF0FF3026
:1013F00021460022002500F027F840F21400C2F236
:10140000000004602846B0BD01252846B0BD00009C
:1014100080B582B041F25800C4F20200816841F008
:1014200001018160816801F0010101910199016868
:1014300041F080510160006800F0805000900098F9
:1014400000F08EF802B080BD70B514460D46064619
:1014500001F008FB2946224601F06EF901463046AC
:1014600001F008FB70BD000080B501F015FB80BDE8
:10147000B0F5007F35D0002866D147F20000C4F2F5
:1014800000000168D0F8802001F4C06122F480726D
:10149000B1F5806FC0F8802021D10168012262F38C
:1014A0004A21016040F20C01C2F2000109683223B6
:1014B00059434DF68363C4F21B33A1FB031302EBC4
:1014C000934100BF43694A1E8A4203D213F48061EC
:1014D0001146F7D14069400544BF03207047002002
:1014E000704747F20000C4F200000168D0F8802085
:1014F00001F4C06142F48072B1F5806FC0F88020C1
:10150000EDD10168012262F34A21016040F20C0131
:10151000C2F200010968322359434DF68363C4F2D5
:101520001B33A1FB031302EB934100BF43694A1E27
:101530008A4203D213F480611146F7D14069400515
:1015400044BF03207047CAE747F20000C4F200001E
:101550000168022262F34A21016000207047000006
:1015600047F20800C4F20000016841F480410160C4
:10157000704700002DE9F047002800F0CA8042F2D1
:10158000000AC4F2020A0446DAF800000D4600F030
:101590000F0088420DD2DAF8000020F00F00284337
:1015A000CAF80000DAF8000000F00F00A84240F08E
:1015B000B080207841F20808C007C4F202080CD1BC
:1015C0004FF00009206881072BD4B9F1800F41D179
:1015D000D8F8000020F0F0003AE06068022800F03F
:1015E0008C80032840F0918058F8080C800140F16D
:1015F000908001F0B9F84BF20041C0F2C44188423A
:101600000CD9D8F8000010F0F00F00F08E80207890
:10161000800703D5A068002800F087804FF00009FC
:101620008CE0410705D5D8F8001041F4E061C8F816
:101630000010000706D5D8F80000072161F30D203F
:10164000C8F80000D8F80000A16820F0F0000843B6
:10165000C8F80000DAF8000000F00F00A84219D91D
:10166000DAF8000020F00F002843CAF80000FFF766
:101670007FFE064641F28837DAF8000000F00F00DE
:10168000A84207D0FFF774FE801BB842F4D90320AC
:10169000BDE8F0872068410707D5D8F80010E26858
:1016A00021F4E0611143C8F80010000708D5D8F80C
:1016B0000000216920F4605040EAC100C8F8000031
:1016C00000F05CF8D8F8001043F21842C1F303119F
:1016D000C0F60002515C40F20C0201F01F0120FA3A
:1016E00001F140F21400C2F200000068C2F20002F0
:1016F0001160FFF761FEBDE8F08758F8080C800321
:101700005CBF0120BDE8F08706E058F8080C4005F2
:1017100002D40120BDE8F08700F030F84BF2004120
:10172000C0F2C44188427FF679AFD8F800000821A2
:1017300061F307104FF08009C8F80000D8F80000E6
:10174000616820F003000843C8F80000FFF710FEAE
:10175000064641F2883700BFD8F80000616800F003
:101760000C00B0EB810F3FF42DAFFFF701FE801BA3
:10177000B842F1D90320BDE8F087000041F20C0126
:10178000C4F2020151F8040C42F20042C0F2F40229
:1017900000F00C000428104608BF704751F8040CF4
:1017A00000F00C00082841F20020C0F27A0021D09D
:1017B00051F8043C03F00C030C2B1CBF00207047B5
:1017C000D1F800C00B680CF0030CC3F30313013312
:1017D000BCF1030F08BF02460868B2FBF3F20968C8
:1017E000C0F306205043C1F34161022202EB4101E4
:1017F000B0FBF1F0704700002DE9F04182B0002805
:1018000000F001810446007841F20006C007C4F2EE
:10181000020654D12078800772D42078000700F1A6
:1018200095802078400700F1B3802078800600F191
:101830000081E569002D00F01882B06800F00C000E
:101840000C2840F05981012D00F0DD80F068216AFC
:1018500000F003028A4240F0D680626A6FF00F0304
:1018600000F0F00103EB0212914240F0CC80A16A3B
:1018700000F4FE42B2EB012F40F0C580E16A00F0B7
:101880007842B2EBC16F40F0BE80226B0023CFF6EE
:10189000E07303EB025200F4C0016FF314029142B3
:1018A00040F0B180616B4FF07E4202EB016100F0CD
:1018B000C06001F07E41884240F0A580D5E1B0686B
:1018C00000F00C01F068082959D0032281F00C01C6
:1018D00022EA00000844B0FA80F040094FD1656860
:1018E000B5F5A02F00F0D380B5F5803F00F0D38090
:1018F000306820F480303060306820F48020CDE003
:10190000B068F16800F00C00042866D001F0030113
:1019100080F00C0081F002010844B0FA80F0400928
:101920005BD1E1683068002900F0D38040F480701A
:101930003060FFF71DFD05463068400500F1FE8070
:10194000FFF716FD401B0228F6D930E16169D6F891
:101950009400002900F0898040F00100C6F894004E
:10196000FFF706FD054600BFD6F8940080073FF557
:1019700058AFFFF7FDFC401B0228F5D917E130688E
:1019800080037FF547AF606800287FF443AF3AE0FB
:10199000B06D10F0805808D1B06D40F08050B06547
:1019A000B06D00F080500190019847F20007C4F23A
:1019B00000073868C0052AD4386840F48070386061
:1019C000FFF7D6FC054600BF3868C0051FD4FFF7F7
:1019D000CFFC401B0228F7D9E9E03068400501D56B
:1019E000E06880B17068216920F0FE4040EA016043
:1019F000706040F21400C2F200000068FFF7DCFCE7
:101A000000283FF40AAF012002B0BDE8F081A568CC
:101A1000052D00F0B080012D00F0B380D6F89000C5
:101A200020F00100C6F89000D6F8900020F00400E5
:101A3000ABE0A169D6F89800002900F0878040F05B
:101A40000100C6F89800FFF793FC0546D6F8980009
:101A500080073FF5EEAEFFF78BFC401B02284FF0EE
:101A60000300F3D902B0BDE8F08120F00100C6F810
:101A70009400FFF77DFC0546D6F8940080077FF5BB
:101A8000D0AEFFF775FC401B0228F5D98FE0306817
:101A900040F480203060306840F480303060FFF7E0
:101AA00067FC002D054610D0306880033FF5B2AECC
:101AB000FFF75EFC401B6428F6D978E0FFF758FC7E
:101AC000401B64284FF00300CCD830688003F5D465
:101AD000A0E620F480703060FFF74AFC054600BFA6
:101AE000306840057FF599AEFFF742FC401B0228A5
:101AF0004FF00300F4D9B5E7306820F08070306013
:101B0000FFF736FC022D05460CD100BF306880017E
:101B100067D5FFF72DFC401B02284FF00300F5D9D5
:101B2000A0E700BF3068800140F19880FFF720FCFB
:101B3000401B02284FF00300F4D993E77068216935
:101B400020F0FE4040EA0160706066E620F001008F
:101B5000C6F89800FFF70CFC054600BFD6F89800C1
:101B600080077FF566AEFFF703FC401B02284FF0AD
:101B70000300F3D976E7D6F8900040F00400C6F8E9
:101B80009000D6F8900040F00100C6F89000FFF7F2
:101B9000EFFB002D054641F2883715D0D6F89000AE
:101BA000800715D4FFF7E4FB401BB842F6D90320A9
:101BB00002B0BDE8F08100BFFFF7DAFB401BB8427E
:101BC0004FF003003FF64EAFD6F890008007F3D4F5
:101BD000B8F1000F7FF429AEB06D20F08050B065F1
:101BE00023E6F06848F20C01C0F29F1104F12007CF
:101BF00000EA010C8ECF6FF00F00D4E90C5400EB1B
:101C000002100022CFF6E07241EA0C0102EB05520D
:101C100008436FF314024FF07E4540EA032005EBC2
:101C20000465104305F07E4540EAC7602843F06034
:101C3000306840F080703060F06840F08070F06094
:101C4000FFF796FB0446306880010ED4FFF790FB47
:101C5000001B02284FF00300F5D903E7F0684FF6A8
:101C6000FC71CFF6EE610840F060002002B0BDE8E4
:101C7000F0810000002804BF01207047B0B5044681
:101C8000406A20B10020206104F1140005E0606882
:101C9000B0F5827F03D004F11C0000210160002513
:101CA000A56294F85D0020B9204684F85C5000F0ED
:101CB00053F8022084F85D002068D4F80CE0026834
:101CC000BEF5E06F22F0400202604EF4006298BF61
:101CD0000125B2F5706F1CBF0023A3624FEA053CDB
:101CE000D4E90135D4E9042103F4827305F40445F1
:101CF0002B4402F002021A44A36901F00101E569D4
:101D0000114403F40072114405F03802256A1144AD
:101D100005F08002A56A114405F4005211430160E8
:101D20000421626A0EF4706501EA1341636B45EAAF
:101D30000C0502F01002294303F008031143194374
:101D40004160C16921F40061C16100200121206668
:101D500084F85D10B0BD000080B586B0006843F621
:101D60000001C4F2000188424FF000010591CDE965
:101D70000311CDE901111DD043F20001C4F20101AC
:101D800088423ED141F24C00C4F20200416941F464
:101D900080514161416901F48051009100990168CD
:101DA00041F002010160006800F00200009000981C
:101DB000282017E041F24C00C4F20200C16841F44F
:101DC0008041C160C16801F48041009100990168BF
:101DD00041F002010160006800F0020000900098EC
:101DE0004FF460400190022002900020CDE90300F2
:101DF0000520059040F20040C4F6000001A9FFF75D
:101E0000DFF906B080BD00002DE9F04182B01D462B
:101E100016460F460446FFF7ABFA94F85D10012909
:101E20000DD18046002F4FF0010018BF002E02D1C7
:101E300002B0BDE8F08194F85C00012803D10220D3
:101E400002B0BDE8F081012084F85C00032084F832
:101E50005D0000202066A763A687E6872064A4F8BB
:101E60004400A4F84600A168C4E91300B1F5004F8E
:101E700008D12068016821F040010160016841F447
:101E80008041016020680168490603D4016841F07F
:101E9000400101606168731EE268B1FA81F1B3FA32
:101EA00083F349095B09B2F5E06F41EA03012ED9DA
:101EB00039B1A16B0988C160B81CA063E08F0138FB
:101EC000E087E08F002863D06E1C0AE0A16B31F838
:101ED000022BC260A163E08F0138E087E08F002809
:101EE00056D0206881688907F0D4FFF741FA002EA8
:101EF000F4D0A0EB0800A842F0D3012084F85D00E4
:101F0000002084F85C00032002B0BDE8F0810029C5
:101F10004FF6FE7112D0E28F022A06D3A26B12880E
:101F2000C260B81C4FF6FE7204E03A780273A06BF0
:101F30004A1C0130A063E08F1044E087E08F38B383
:101F40006E1C4F1C0CE0A16B09780173012039460F
:101F5000A26B1044A063E08F0844E087E08FB8B123
:101F600020688168890709D4FFF702FA002EF5D0AE
:101F7000A0EB0800A842F1D3BFE700BFE18F022920
:101F8000E1D3A16B0988C16002204FF6FE71DFE743
:101F900020462946424600F017FC00281CBF20209E
:101FA0002066A06838B9002001902068C1680191BE
:101FB000806801900198012084F85D00002084F879
:101FC0005C00206E002818BF012002B0BDE8F0813F
:101FD00080B500F0EBFC80BDFEE7000070B540F27C
:101FE0007805C2F200056889A9890138013940F6EF
:101FF000184482B28BB200200021C4F6000400F025
:10200000B1F94FF0006020606889A989484350B158
:10201000002600BFA88800F097FA6889A9890136D0
:1020200048438642F6D34FF40060206070BD000044
:102030002DE9F04F83B040F61843C4F600034FF08B
:10204000006740F288051F60C2F200052B681F89F7
:10205000002F4AD0203ACDE90001D0B240F27802F8
:10206000C2F20002D2E90046D5F800E040F28C0B43
:102070004FF0000AC2F2000B4FF000090025029059
:1020800009E000BF4FF00009BEF808700AF1010A2C
:10209000BA45734622D20298D3F8008007FB00A20B
:1020A0004F4618F8022009F108094FF0000800BF58
:1020B000D1071FFA85FC214608BF31462BF81C10BA
:1020C00001379988B8B2884205F10105DAD0520883
:1020D000B8F1070F08F10108EAD3D5E740F2880507
:1020E000DDE900017346C2F200059A888718DA8894
:1020F000013F0A44531EBAB29BB200F033F928687C
:102100008188C088484381B240F28C00C2F200004E
:1021100000F0E8F903B0BDE8F08F00002DE9F041D0
:1021200040F27807C2F2000714467A89824217D932
:1021300040F2880805460E46C2F200082278002ABE
:1021400008BFBDE8F081A8B23146FFF771FFD8F8AB
:1021500000000134808805447889A9B28142EDD31A
:10216000BDE8F08110B540F60044C4F600042046F6
:102170004FF480510122FFF7F5F84FF40060A061A1
:1021800020464FF400510022FFF7ECF80A20FFF739
:1021900003F86FF07F4000F03DF94FF00060A06160
:1021A000362000F0B5F9002000F0E8F93A2000F000
:1021B000AFF9052000F0E2F9B22000F0A9F90C20F7
:1021C00000F0DCF90C2000F0D9F9002000F0D6F97D
:1021D000332000F0D3F9332000F0D0F9B72000F01D
:1021E00097F9352000F0CAF9BB2000F091F91920C9
:1021F00000F0C4F9C02000F08BF92C2000F0BEF9EB
:10220000C22000F085F9012000F0B8F9C32000F0E9
:102210007FF9122000F0B2F9C42000F079F92020F3
:1022200000F0ACF9C62000F073F90F2000F0A6F919
:10223000D02000F06DF9A42000F0A0F9A12000F05A
:102240009DF9E02000F064F9D02000F097F9042017
:1022500000F094F90D2000F091F9112000F08EF9B2
:10226000132000F08BF92B2000F088F93F2000F0BC
:1022700085F9542000F082F94C2000F07FF91820F5
:1022800000F07CF90D2000F079F90B2000F076F9D0
:102290001F2000F073F9232000F070F9E12000F016
:1022A00037F9D02000F06AF9042000F067F90C201B
:1022B00000F064F9112000F061F9132000F05EF9DC
:1022C0002C2000F05BF93F2000F058F9442000F08A
:1022D00055F9512000F052F92F2000F04FF91F203E
:1022E00000F04CF91F2000F049F9202000F046F9D9
:1022F000232000F043F9212000F00AF9112000F01A
:1023000007F97820FEF748FF292000F001F940F690
:102310008C00C2F20000006881680906FCD44FF40A
:102320000060A061022000F087F8002000F060F853
:102330006FF07F4000F06EF8FFF750FE40F20000B3
:10234000C2F2000000F04EF8002000F0C5F8204670
:102350004FF400510122FFF705F810BD80B500F0E1
:1023600027FA80BD2DE9F04381B040F618480746B2
:10237000C4F600084FF00060C8F800002A20994613
:1023800016460D4600F0C4F840F27804C2F200048C
:10239000A07B384480B200F0D7F8A07B304480B2F4
:1023A00000F0D2F82B2000F0B3F8E07B284480B294
:1023B00000F0CAF8E07B484480B200F0C5F82C2059
:1023C00000F0A6F840F68C00C2F20000006800BFE2
:1023D00081680906FCD44FF40060C8F8000001B021
:1023E000BDE8F08340F28801C2F200010860704746
:1023F0004FF478414FF4FC6201EA102102EA5012D6
:10240000C0F3C4001144084440F27801C2F2000154
:10241000486070474FF478414FF4FC6201EA1021A4
:1024200002EA5012C0F3C4001144084440F278019B
:10243000C2F20001086070472DE9F04740F2780AC7
:10244000044640F61848C2F2000AC4F600088AF8AA
:1024500009004FF00060032CC8F800002CD84FF0A2
:10246000F0094FF48C7614277025DFE804F017028A
:102470000A114FF0F0094FF48C7600241427A025A0
:102480000CE04FF48C79F02614240025002705E099
:102490004FF48C79F02614240027C025362000F054
:1024A00037F8284600F06AF88AF80E708AF80F406C
:1024B000AAF80A60AAF80C9040F68C00C2F200005C
:1024C000006800BF81680906FCD44FF40060C8F8BA
:1024D0000000BDE8F087000040F27801C2F2000180
:1024E0000872704770B50C4640F61845C4F60005F2
:1024F0004FF0006129603CB1861E00BF36F8020F24
:1025000000F022F8013CF9D14FF40060286070BD62
:1025100010B582B040F60044C4F600048DF8070000
:1025200020464FF480510022FEF71CFF0DF10700FA
:102530000121FFF713FF20464FF480510122FEF7DF
:1025400011FF02B010BD000080B582B00021ADF8CF
:102550000610010A8DF8070040F600408DF80610BD
:10256000C4F600004FF480510122FEF7FBFE0DF18E
:1025700006000221FFF7F2FE02B080BD80B582B0F6
:102580008DF8070040F60040C4F600004FF480517B
:102590000122FEF7E7FE0DF107000121FFF7DEFE45
:1025A00002B080BD2DE9F04186B0002741F24C0019
:1025B0000597CDE90377CDE90177C4F20200016800
:1025C00040F6004441F0040101600168C4F60004D3
:1025D00001F00401009100990168A4F5006541F043
:1025E000200101600168012201F0200100910099A1
:1025F00001684FF4805641F00201016001684FF01C
:10260000010801F0020100910099016841F0080100
:102610000160016801F0080100910099016841F032
:102620000101016000684FF4805100F0010000904A
:1026300000982846FEF796FE20464FF400610122DE
:10264000FEF790FE20464FF440510022FEF78AFE2E
:10265000CDE90168032001AE049028463146039776
:10266000FEF7AEFD4FF4C050CDE901080220049002
:10267000204631460397FEF7A3FD4FF40050CDE905
:10268000010820463146CDE90377FEF799FD06B0F3
:10269000BDE8F08110B540F68C0043F20001C2F2B3
:1026A0000000C4F201014FF4827200234FF4E06C89
:1026B0004FF4007E182480E80E100721C0E904338F
:1026C000C0E906E4C0E90833C0E90A31C0E90C33C7
:1026D000FFF7D0FA002818BFFEF758FD10BD000024
:1026E00070B540F6F00043F60001C2F20000C4F2FB
:1026F00000014FF4827200234FF4E06C4FF0020EA1
:10270000012480E80E5000F114014FF400752026DA
:1027100070C10721C0E90833C0E90A31C0E90C33B0
:10272000FFF7A8FA002818BFFEF730FD70BD0000C3
:10273000FEE70000FEE7000000F0070080F007035E
:10274000042B28BF04234FF0FF3C03380CFA03F39B
:1027500038BF0020994381400CFA00F022EA0000C3
:10276000084370477047000041F20C00C4F20200B9
:102770000168026842F2004301F00301C2F3031250
:10278000C0F2F4030132032904BF41F20023C0F276
:102790007A030168B3FBF2F20068C1F306215143EA
:1027A000C0F34160022202EB4000B1FBF0F0704741
:1027B00080B50A46014640F68C00C2F200004FF494
:1027C0007A73FFF721FB80BD70B515460E464FF4B6
:1027D000C05132462B46044600F018F868B920462E
:1027E00031462A4600F086F838B920464FF4C061D9
:1027F00032462B4600F00AF828B1206E40F0200047
:102800002066032070BD002070BD00002DE9F04F50
:1028100083B04FF000091E4690460D4683468DF862
:102820000790FEF7A5FD301A00EB0807FEF7A0FDA4
:1028300040F20C01C2F20001096823225143090D44
:10284000DBF800A079430291DAF8081029424DD054
:10285000064608F1010407E0029801380290DBF80F
:1028600000008068284214D0B5F5C06F05D19AF8F1
:102870000C008DF807009DF80700002CEFD0FEF744
:1028800077FD801BB84207D202980028E4D10027C8
:10289000E5E74FF0000929E0DBE900014268B1F506
:1028A000827F22F0E00242600BD1DBF80810B1F524
:1028B000004F02D0B1F5806F03D1016821F04001D3
:1028C0000160DBF82810B1F5005F07D1016821F441
:1028D00000510160016841F40051016001208BF852
:1028E0005D0000208BF85C004FF00309484603B000
:1028F000BDE8F08FF0B581B015460E460446FEF7F0
:1029000037FD281A8719FEF733FD40F20C01C2F299
:1029100000010968C1F3CB317943009121688968CE
:10292000090602D4002001B0F0BD0546013606E0DC
:10293000009801380090206880680006F2D5002ECB
:10294000F9D0FEF715FD401BB84204D200980028CC
:10295000EED10027EFE7D4E900014268B1F5827FAC
:1029600022F0E00242600AD1A168B1F5004F02D026
:10297000B1F5806F03D1016821F040010160A16AC7
:10298000B1F5005F07D1016821F4005101600168D1
:1029900041F400510160012084F85D00002084F8BA
:1029A0005C00032001B0F0BD70470000B0B50138F5
:1029B0000024B4EB106F1CBF0120B0BD4EF2100517
:1029C000CEF2000568604FF0FF300F2100F052F8A2
:1029D0000720AC6028602046B0BD000080B5FEF73F
:1029E000CDFC80BD70B594B006AC20463821FDF713
:1029F000EBFD002500200595CDE90355CDE90155F6
:102A0000FEF736FD012006904FF48030079002203B
:102A1000032655210D90CDE90E60CDE91010CDE9CA
:102A200012002046FEF7E8FE68B90F20CDE9010646
:102A300001A80421CDE903550595FEF79BFD00286B
:102A400004BF14B070BDFEF7A1FB00004EF6885025
:102A5000CEF20000016841F470010160704700008F
:102A6000FEE700004EF60C50CEF200000068C0F306
:102A7000022070474EF6145300F00F02CEF200030E
:102A800009011A4400F16043B0F1FF3FC8BF03F5EC
:102A900064421170704700004EF60C51CEF20001F6
:102AA0000A684FF6FF031A4060F30A2242F0806082
:102AB00040F0FD7008607047FEF76EFCFFF792FF74
:102AC000FFF770FDFFF70CFEFFF7E4FDFFF74AFB91
:102AD00003A20A200A21FFF721FB00BFFEE700BF87
:102AE00048656C6C6F20576F726C642100000000A9
:102AF0005FEA400C08BF91F0000F4FEA8C234FEAC9
:102B0000C12243EA51514FEA1C5018BF00F5F04072
:102B10004FEA300018BF41F000415FEA6C5C00F002
:102B20002980BCF1FF3F08BF40F080407047130C84
:102B300006BF12044FF0100C4FF0000C130E04BF30
:102B400012020CF1080C130F04BF12010CF1040C5B
:102B5000930F04BF92000CF1020CD30F04BF52007C
:102B60000CF1010C11464FF00002A0F11F00A0EB88
:102B70000C00704711F0004F08BF704731F0004162
:102B80003FF4D5AF0B0C06BF09044FF0100C4FF00B
:102B9000000C0B0E04BF09020CF1080C0B0F04BF54
:102BA00009010CF1040C8B0F04BF89000CF1020C1D
:102BB000CB0F04BF49000CF1010CCCF1200322FA29
:102BC00003F341EA030102FA0CF2A0EB0C0000F15E
:102BD0000100704723F07F4720F07F4C80EA03001C
:102BE00000F00040ACEB070303F57C5303F1FF0357
:102BF0002DE9804909B44FEA144324EA03484FEA17
:102C0000154B25EA0B4E0FF2042606EB13273E78F0
:102C100003FB0667C7F5000707FB06F64FEAD64633
:102C200006F102064FEA543707FB066CCCF1005C54
:102C30004FEA1C472CEA074C0CFB06F507FB06F491
:102C400004EB15464FEA961649085FEA320234BF94
:102C500000204FF000404FEAD13706FB07FC4FEA57
:102C60001C4C0CFB0BF7D21B03FB0CF761EB0701B1
:102C70000CFB0EF7B0EB074072EB17420CFB08F7AA
:102C800034BFA2EB0742B2EB074261EB17414FEAB8
:102C90000C444FEA910706FB07FC4FEA1C4C0CFB67
:102CA0000BF7B0EBC74072EB573203FB0CF734BFA6
:102CB000A2EBC742B2EBC74261EB57310CFB0EF7F8
:102CC000B0EBC70072EB57720CFB08F734BFA2EBF6
:102CD000C702B2EBC70261EB57714FEA816141EA6B
:102CE00092114FEA826242EA90124FEA806004EB4E
:102CF000CC04039F4FEAD13706FB07FC4FEA1C4C7C
:102D00000CFB0BF7D21B03FB0CF761EB07010CFB71
:102D10000EF7B0EB074072EB17420CFB08F734BF1D
:102D2000A2EB0742B2EB074261EB17414FEA8C5529
:102D300004EB9C244FEA910706FB07FC4FEA1C4C6E
:102D40000CFB0BF7B0EBC74072EB573203FB0CF7F1
:102D500034BFA2EBC742B2EBC74261EB57310CFB69
:102D60000EF7B0EBC70072EB57720CFB08F734BFDD
:102D7000A2EBC702B2EBC70261EB57714FEA816168
:102D800041EA92114FEA826242EA90124FEA806071
:102D900015EB4C2544F100044FEAD13706FB07FC44
:102DA0004FEA1C4C0CFB0BF7D21B03FB0CF761EB3F
:102DB00007010CFB0EF7B0EB074072EB17420CFB60
:102DC00008F734BFA2EB0742B2EB074261EB1741B1
:102DD0004FEA813141EA92414FEA823242EA90421F
:102DE0004FEA80304FEA0C7615EB1C1544F10004D5
:102DF00048EA03434EEA0B484FF0000EB2EB080CD2
:102E000071EB030724BF624639464EEB0E0E4FF0BE
:102E1000000B0018524149414BEB0B0BB2EB080C75
:102E200071EB03077BF1000B24BF624639464EEB82
:102E30000E0E4FF0000B0018524149414BEB0B0BAB
:102E4000B2EB080C71EB03077BF1000B24BF624669
:102E500039464EEB0E0E51EA020718BF46F0010646
:102E600016EB0E7655F1000254F1000103D5BDE8D2
:102E70008901BDE80088BDE88901BDE80048B619B0
:102E8000524141EB0101A3F10103704780807F7E35
:102E90007D7C7B7A797877767675747372717170D0
:102EA0006F6E6E6D6C6C6B6A6A6968686766666582
:102EB0006464636362616160605F5F5E5E5D5D5C10
:102EC0005C5B5B5A5A595958585757565655555581
:102ED0005454535352525251515050504F4F4F4EE1
:102EE0004E4D4D4D4C4C4C4B4B4B4A4A4A4949492F
:102EF0004848484747474746464645454544444471
:102F00004443434343424242424141419C46002B99
:102F100030D477002BD04FEA37071CB503B44FF0FD
:102F200010004FF01001BAF1000F06D0BCF1000FF5
:102F3000DCBF40F0080040F008014FF000000FBC7B
:102F4000BDE810400BF1010BBBF1010F08BF5FEAB8
:102F5000170722BF12F1010211F101014FF00041E8
:102F600043F1000300F0004043EA00007047F9D34A
:102F70005708D0E746EA06464FEA164613F1400FD7
:102F80001FDD13F1200FDFBF16430A460021203357
:102F90005B42BED0C3F1200746EA06464FEA16461A
:102FA00002FA07F746EA070622FA03F2C3F12007FE
:102FB00001FA07F742EA070221FA03F14FF0000392
:102FC000A7E746EA020646EA06464FEA164646EAFA
:102FD0000106BCBF46EA0646360C4FF000034FF030
:102FE00000024FF0000194E72DE9804C70B49A463E
:102FF000934691E8380007C831EA400C48BF34EAEC
:10300000430C03D5FFF7E6FDFFF780FFF0BCBDE8FA
:10301000008C2DE9804C70B49A46934691E83800B4
:1030200007C810F0804F08BF13F0804F03D100F0A5
:1030300005F8FFF76BFFF0BCBDE8008C20F07F4780
:1030400023F07F4C80EA030000F0004007EB0C0304
:10305000A3F57C53A3F1FE0392F0000F00F0B380C0
:1030600095F0000F00F077802DE901494FEA1140FB
:1030700021EA00484FEA144624EA064700FB06FC12
:1030800008FB06F607FB08F818EB06484CEB164C55
:1030900000FB07F718EB07484CEB17404FEA124BC1
:1030A00022EA0B4E4FEA154625EA06470BFB06FCC3
:1030B0000EFB06F607FB0EFE1EEB064E4CEB164C07
:1030C0000BFB07F71EEB074E4CEB174B18EB0B08EF
:1030D00040F1000018EB0E0B58EB000840F1000027
:1030E0008F1A4FF000014FF000063CBFC943661B2A
:1030F00014BFB5EB040C00213CBFC943F61B4FEADB
:10310000174427EA04454FEA1C472CEA074C04FB06
:10311000076205FB07F70CFB05F616EB074642EBCB
:10312000174204FB0CFC16EB0C4642EB1C421BEB5B
:10313000060658EB020241414EEA8E0E46EA9E0612
:1031400001D5BDE80189B619524141EB0101A3F156
:103150000103BDE801894FEA144524EA05464FEA18
:10316000114721EA074C05FB07F406FB07F70CFBA8
:1031700006F111EB074144EB174405FB0CFC11EB86
:103180000C4144EB1C444FEA124722EA074C05FB72
:1031900007F206FB07F70CFB06F616EB074642EBB9
:1031A000174205FB0CFC16EB0C4642EB1C456A185B
:1031B00054F1000148BF7047B619524141EB01017B
:1031C000A3F10103704795F0000F37D04FEA114289
:1031D00021EA02464FEA144724EA074C02FB07F1B2
:1031E00006FB07F70CFB06F414EB074441EB174111
:1031F00002FB0CFC14EB0C4441EB1C414FEA15475D
:1032000025EA074C02FB07F506FB07F70CFB06F661
:1032100016EB074645EB174502FB0CFC16EB0C467C
:1032200045EB1C42121951F1000148BF7047B61915
:10323000524141EB0101A3F1010370474FEA1445EC
:1032400024EA05464FEA114721EA074C05FB07F13E
:1032500006FB07F70CFB06F212EB074241EB1741A6
:1032600005FB0CFC12EB0C4251EB1C414FF000062D
:1032700048BF7047921841EB0101A3F10103704769
:1032800003B401984100009850EAC12018BF0420FF
:103290004A0D18BF40F0010040F2FF72B2EB515FDF
:1032A00008BF40F00200012808BF052002B07047A7
:1032B00010B500290AD00878002807D005487844BE
:1032C000FDF71AFF002801D0002010BD0248784405
:1032D00010BD00005A1300005213000010B5002961
:1032E0000AD00878002807D005487844FDF704FF85
:1032F000002801D0002010BD0248784410BD000015
:103300004A13000042130000F1EE100A4FF6FF715D
:10331000C0F2C03120EA010040F04070E1EE100A36
:103320007047FDF7ACBAFDF7E1BB000000000000FC
:1033300000000000303132333435363738394142FD
:103340004344454640305800303132333435363707
:1033500038396162636465664030780030313233F9
:1033600034353637383961626364656678700030A9
:103370003132333435363738394142434445465883
:103380005000000002400000000000A0000000000B
:1033900005400000000000C8000000000C400000D4
:1033A0000000409C00000000194000000020BCBE4E
:1033B0000000000034400000BFC91B8E0000000464
:1033C000B5400000504BCFD06607E2CF01000000AF
:1033D0006C4100003E8251AADFEEA73401000000DC
:1033E000D9420000DCB5A0E23A301F97FFFFFFFF93
:1033F000B4450000FD25A0C8E9A3C14FFFFFFFFFB2
:10340000FF3F00000000008000000000FF3F0000C0
:10341000000000800000000000000000000000002C
:103420000102030406070809000000000000000074
:10343000000000000000000000000000000000008C
:10344000000000000000000000000000000000007C
:10345000000000000000000000000000000000006C
:10346000600060006000600060006000600040007C
:10347000200020002000000000000000600060002C
:103480006000000000000000000000006006600610
:103490003003980188004400000000000000000094
:1034A000000000000000000000000000000000001C
:1034B000000000000000000000000000000000000C
:1034C0001002100210021002FE07FE070802080197
:1034D000080108010801FE07FE07040104010401B8
:1034E0000401000000000000000000000000400097
:1034F0004000F00158034C03CC034C00580070000E
:10350000E000C001C00140034C035C034C034801D0
:10351000F00040004000000000000000000000003B
:103520000E010A01910091009100510051003A00F2
:10353000AE03A00250045004480448044804840226
:1035400084030000000000000000000000000000F4
:1035500038006C006C006C006C006C002C0098074C
:103560001C011A01330133016301E300C308C609DA
:103570003C07000000000000000000000C001C00E0
:10358000100010000800040000000000000000000F
:10359000000000000000000000000000000000002B
:1035A0000000000000000000000000000004000215
:1035B000000180008000400040002000200020002A
:1035C00020002000200020004000400080008000FB
:1035D00000010002000400000000000002000400DE
:1035E00008001000100020002000400040004000B3
:1035F000400040004000400020002000100010006B
:1036000008000400020000000000000000000000AC
:10361000000000004000C0004000460C4E0FD001EA
:10362000F0015E0F460C400040004000000000002A
:10363000000000000000000000000000000000008A
:10364000000000000000400040004000400040003A
:10365000FE0F40004000400040004000000000001D
:10366000000000000000000000000000000000005A
:10367000000000000000000000000000000000004A
:103680000000000000000000000000000C001C0012
:1036900010001000080004000000000000000000FE
:1036A000000000000000000000000000000000001A
:1036B000FE07000000000000000000000000000005
:1036C00000000000000000000000000000000000FA
:1036D00000000000000000000000000000000000EA
:1036E0000000000000000000000000001C001C00A2
:1036F0001C000000000000000000000000040006A4
:103700000002000300010001800080004000400032
:1037100060002000200010001000080008000C00CD
:10372000040006000200000000000000000000008D
:103730000000F00098010C030C03060606060606BE
:10374000060606060606060606060C030C03980186
:10375000F000000000000000000000000000000079
:10376000000040007C0060006000600060006000BD
:103770006000600060006000600060006000600049
:10378000FC0300000000000000000000000000003A
:103790000000F80084010203060306030003000191
:1037A0008001C00060002000100008020402060230
:1037B000FE03000000000000000000000000000008
:1037C00000007800C6008601860180018001C000EB
:1037D0007000800100010003000306030603860158
:1037E000F8000000000000000000000000000000E1
:1037F000000080018001C001A001A00190018801AA
:10380000880184018201FE0F800180018001800116
:10381000E0070000000000000000000000000000C1
:103820000000FC0304000400040004000400F40091
:103830008C010403000300030603060382018401D4
:10384000F800000000000000000000000000000080
:103850000000E00118030C030C0004000600E60160
:1038600016030E0606060606060604060C021803D4
:10387000F000000000000000000000000000000058
:103880000000F8070C06040204010001000180009A
:103890008000400040004000600060006000600068
:1038A00060000000000000000000000000000000B8
:1038B0000000F8010C030606060606060C021C03AF
:1038C000F000C8010C0306060606060606060C03F1
:1038D000F0010000000000000000000000000000F7
:1038E0000000F0000C010C030602060606060606A0
:1038F00006078C0678060006000300030C018C0105
:10390000780000000000000000000000000000003F
:10391000000000000000000000000000E000E000E7
:10392000E00000000000000000000000E000E000F7
:10393000E0000000000000000000000000000000A7
:1039400000000000000000000000000060006000B7
:103950000000000000000000000000000000600007
:103960006000400020002000000000000000000077
:103970000004000200018000400020001000080048
:103980000400080010002000400080000001000238
:103990000004000000000000000000000000000023
:1039A000000000000000000000000000FE07000012
:1039B00000000000FE070000000000000000000002
:1039C00000000000000000000000000000000000F7
:1039D00004000800100020004000800000010002E8
:1039E00000040002000180004000200010000800D8
:1039F00004000000000000000000000000000000C3
:103A00000000E0031806040C040C0C0C0C0C00075E
:103A1000800140004000400000000000E000E000A5
:103A2000E0000000000000000000000000000000B6
:103A3000E00018030C02CC0564056605A605B60473
:103A4000B604B604B604B602E4010C040C02180372
:103A5000F000000000000000000000000000000076
:103A60000000600060005000D000900090008800CE
:103A700088010801F801040304030402020202069B
:103A80000F0F000000000000000000000000000018
:103A90000000FE008C030C030C030C030C038C01D0
:103AA000FC000C030C020C060C060C060C060C03A6
:103AB000FE01000000000000000000000000000007
:103AC0000000E00318030C060C04040406000600C2
:103AD000060006000600060006040C040C0218038B
:103AE000F0000000000000000000000000000000E6
:103AF00000007F008C010C030C030C060C060C0666
:103B00000C060C060C060C060C060C030C038C01B0
:103B10007F00000000000000000000000000000026
:103B20000000FF0306030604060406008600860064
:103B3000FE008600860086000600060406040602D3
:103B4000FF03000000000000000000000000000073
:103B50000000FF0306030604060406008600860034
:103B6000FE008600860086000600060006000600AD
:103B70001F00000000000000000000000000000026
:103B80000000F00018010C020C02040206000600FE
:103B900006000600C60F060306030C030C031803F9
:103BA000F000000000000000000000000000000025
:103BB00000000F0F0606060606060606060606069F
:103BC000FE0706060606060606060606060606069C
:103BD0000F0F0000000000000000000000000000C7
:103BE0000000FC0360006000600060006000600096
:103BF00060006000600060006000600060006000C5
:103C0000FC030000000000000000000000000000B5
:103C10000000F807C000C000C000C000C000C00025
:103C2000C000C000C000C000C000C000C000C00094
:103C3000C000C60066003C0000000000000000005C
:103C40000000CF038601C60046002600160036009D
:103C50002E006E004600C60086008601060106039F
:103C60008F070000000000000000000000000000BE
:103C700000001F0006000600060006000600060001
:103C800006000600060006000600060406040602FA
:103C9000FF03000000000000000000000000000022
:103CA00000000707860386038E038E034E034E0330
:103CB0004A035A035A033A0332033203320312030C
:103CC0008707000000000000000000000000000066
:103CD00000008E0F0C021C021C023402340264022B
:103CE00064024402C40284028403840304030403C0
:103CF0001F020000000000000000000000000000A3
:103D00000000F00098010C030C02060606060606E9
:103D1000060606060606060606060C020C039801B1
:103D2000F0000000000000000000000000000000A3
:103D30000000FF000603060606060606060606063F
:103D40008603FE00060006000600060006000600C8
:103D50001F00000000000000000000000000000044
:103D60000000F00098010C030C0206060606060689
:103D7000060606060606060676064C02CC039801E1
:103D8000F0008007000300000000000000000000B9
:103D90000000FF01060306060606060606060603E1
:103DA000FE004600C60086008601060306030606DE
:103DB0000F0E0000000000000000000000000000E6
:103DC0000000F8020C030602060206000E003C008A
:103DD000F800E003800300070206020606060C0353
:103DE000F0010000000000000000000000000000E2
:103DF0000000FE0762046108610860006000600066
:103E000060006000600060006000600060006000B2
:103E1000F8010000000000000000000000000000A9
:103E200000001E070C020C020C020C020C020C0219
:103E30000C020C020C020C020C020C020C02180107
:103E4000F000000000000000000000000000000082
:103E500000000F070602040104010C010C01880098
:103E6000880098009800500050007000300020003A
:103E70002000000000000000000000000000000022
:103E80000000F70E62044204460446046402640221
:103E9000E402E4029C029C019801980188018800D8
:103EA000880000000000000000000000000000008A
:103EB00000009E070C01080118019000B00060008E
:103EC000200060006000D000900088010801040319
:103ED0008E0700000000000000000000000000004D
:103EE00000000F0F060404020C0208011801B800BC
:103EF000B000700060006000600060006000600062
:103F0000F8010000000000000000000000000000B8
:103F10000000FC070C020603020180018000400043
:103F20004000200020001000180008040C040402C7
:103F3000FE0300000000000000000000E00320007D
:103F40002000200020002000200020002000200071
:103F50002000200020002000200020002000200061
:103F600020002000E003000000000000000000002E
:103F700004000400080008001000100010002000D9
:103F8000200040004000C0008000800000010001CF
:103F90000002000200020004000000007C0040005B
:103FA0004000400040004000400040004000400011
:103FB0004000400040004000400040004000400001
:103FC000400040007C0000000000600090000801FC
:103FD00000000000000000000000000000000000E1
:103FE00000000000000000000000000000000000D1
:103FF00000000000000000000000000000000000C1
:1040000000000000000000000000000000000000B0
:1040100000000000000000000000000000000000A0
:10402000000000000000FF0F00000000180060000A
:104030000000000000000000000000000000000080
:104040000000000000000000000000000000000070
:104050000000000000000000000000000000000060
:10406000000000000000000000000000F0010C0350
:104070000C030003E0031C030E03060306038E0B70
:104080007C0E0000000000000000000000000000A6
:1040900008000E000C000C000C000C00CC013C03CE
:1040A0001C060C060C060C060C060C060C021C0367
:1040B000E40100000000000000000000000000001B
:1040C000000000000000000000000000F0008C0173
:1040D0008C01860106000600060006020C020C0197
:1040E000F0000000000000000000000000000000E0
:1040F0000002C003000300030003000378038C03E5
:104100000C030603060306030603060304038C07D9
:104110007801000000000000000000000000000026
:10412000000000000000000000000000E001180393
:1041300008020C060C06FC070C000C001804180200
:10414000E00100000000000000000000000000008E
:104150000000C0036006300630003000FE01300071
:1041600030003000300030003000300030003000CF
:10417000FC01000000000000000000000000000042
:10418000000000000000000000000000F007D8065A
:104190008C018C018C019801F8000C00FC00CC0310
:1041A000060306038E03F800000000000000000074
:1041B00008000E000C000C000C000C00EC011C03AD
:1041C0000C030C030C030C030C030C030C030C0377
:1041D0009E0700000000000000000000000000003A
:1041E0000000600060000000000040007C006000F3
:1041F00060006000600060006000600060006000BF
:10420000FC030000000000000000000000000000AF
:104210000000C001C001000000000001F0018001A9
:104220008001800180018001800180018001800186
:1042300080018001CC007C00000000000000000034
:1042400008000E000C000C000C000C008C038C000D
:104250008C004C006C005C008C008C010C010C0389
:104260009E070000000000000000000000000000A9
:1042700040007C0060006000600060006000600042
:10428000600060006000600060006000600060002E
:10429000FC0300000000000000000000000000001F
:1042A0000000000000000000000000003707EE06DC
:1042B000660666066606660666066606660666069E
:1042C000FF0F0000000000000000000000000000E0
:1042D000000000000000000000000000EE011C03D0
:1042E0000C030C030C030C030C030C030C030C0356
:1042F0009E07000000000000000000000000000019
:10430000000000000000000000000000F000980124
:104310000C03060606060606060606060C030C0334
:10432000F00000000000000000000000000000009D
:10433000000000000000000000000000EE011C036F
:104340000C060C060C060C060C060C060C031C03D3
:10435000EC010C000C003E0000000000000000001A
:1043600000000000000000000000000078028C0344
:104370000C030603060306030603060304038C036B
:10438000780300030003C0070000000000000000E5
:104390000000000000000000000000009F0358061D
:1043A0003806180018001800180018001800180027
:1043B000FF000000000000000000000000000000FE
:1043C000000000000000000000000000F0031C03DB
:1043D0000C020C023800F000C003040304038C0339
:1043E000FC010000000000000000000000000000D0
:1043F000000000002000200030003000FE013000EE
:104400003000300030003000300030003002300228
:10441000E0010000000000000000000000000000BB
:104420000000000000000000000008028E030C03E2
:104430000C030C030C030C030C030C030C039C0770
:1044400078010000000000000000000000000000F3
:104450000000000000000000000000001E070C0229
:104460000801080118019000B000B0006000600071
:10447000200000000000000000000000000000001C
:10448000000000000000000000000000F70E6204C1
:10449000460464026402EC029C01980198019801B0
:1044A0000800000000000000000000000000000004
:1044B000000000000000000000000000BC07180120
:1044C0001001B00060006000E000900008010803E7
:1044D0009E07000000000000000000000000000037
:1044E0000000000000000000000000009E0708011E
:1044F0000801080190009000B000600060006000BA
:104500002000200024001C0000000000000000002B
:10451000000000000000000000000000FC01840119
:10452000C4004400600020003000180208020C03A0
:10453000FC010000000000000000000000038000FB
:1045400080008000800080008000800080004000AB
:1045500020004000800080008000800080008000FB
:104560008000800000030000400040004000400048
:10457000400040004000400040004000400040003B
:10458000400040004000400040004000400040002B
:104590004000400040004000000000000C001000FF
:1045A000100010001000100010001000100020007B
:1045B000400020001000100010001000100010003B
:1045C000100010000C00000000001C002204C204B7
:1045D0008003000000000000000000000000000058
:1045E00000000000000000000000000000000000CB
:1045F0000000000000000000484700080000002004
:10460000180000001402000860470008180000208D
:10461000400F0000300200081C00000043000000B2
:10462000F8FFFFFF0C0000000E0000000F0000006C
:104630002E0000001001000043000000F8FFFFFF03
:1046400000404040404040404040414141414140A5
:10465000404040404040404040404040404040405A
:1046600040050202020202020202020202020202E9
:1046700002202020202020202020200202020202EE
:104680000202909090909090101010101010101046
:104690001010101010101010101010100202020252
:1046A0000202888888888888080808080808080896
:1046B0000808080808080808080808080202020292
:1046C00040000000000000000000000000000000AA
:1046D00000000000000000000000000000000000DA
:1046E00000000000000000000000000000000000CA
:1046F00000000000000000000000000000000000BA
:1047000000000000000000000000000000000000A9
:104710000000000000000000000000000000000099
:104720000000000000000000000000000000000089
:104730000000000000000000000000000000000079
:104740000000000000000000283400080C001800E1
:10475000300000000024F400010000001000000000
:04000005080001D915
:00000001FF
